:100000000C943D000C94FA040C94EB040C943D0504
:100010000C943D050C943D050C943D050C943D0558
:100020000C943D050C943D050C943D050C943D0548
:100030000C943D050C943D050C9467000C943D0513
:100040000C943D050C943D050C943D050C943D0528
:100050000C943D050C94A8010C943D050C943D05B1
:100060000C943D050C943D050100010E80010E012C
:1000700020000A7E01200129800011241FBECFEF3D
:10008000D8E0DEBFCDBFE8E6F0E040E017C0B591B4
:10009000A59135912591059107FD0CC0959185910C
:1000A000EF01F92FE82F05900D92A217B307D9F7AA
:1000B000FE0104C01D92A217B307E1F7E937F40768
:0E00C00031F70E94EC020C946500F894FFCF1B
:1000CE001F920F920FB60F921124CF92DF92EF92E2
:1000DE00FF922F933F934F935F936F937F938F93E3
:1000EE009F93AF93BF93CF93EF93FF9360912001B4
:1000FE0070912101809122019091230120E030E046
:10010E0048EC52E40E942D0588230CF447C0609100
:10011E0020017091210180912201909123010E9472
:10012E00650480912701813069F028F08230D9F082
:10013E00833061F185C080912801882309F482C043
:10014E00CFE085C0EDEC6E9FE12D1124CE2FC6952C
:10015E00C695C695EC2FEE0F8E2F880F880FE80FE1
:10016E00C62FCE1B74C089E2689F812D1124829503
:10017E008F7094E6899F60191124EDEC6E9FE12D2E
:10018E001124CE2FC695C695C69561C0E9E26E9F25
:10019E00E12D1124CE2FC295CF7059C06091200150
:1001AE007091210180912201909123010E9465049A
:1001BE0080912701813069F028F0823039F1833047
:1001CE00B1F142C080912801882309F43FC0CFE0ED
:1001DE003EC0C0902001D0902101E0902201F0900D
:1001EE00230170E080E090E00E942A049B01AC01A4
:1001FE00C701B6010E94060520E030E040E251E45E
:10020E000E9436050E946504C62F21C0EDEC6E9F3C
:10021E00E12D1124CE2FC695C695C695EC2FEE0F67
:10022E008E2F880F880FE80FC62FCE1B10C0EDEC57
:10023E006E9FE12D1124CE2FC695C695C69507C08B
:10024E00C0E005C0CCE003C0C0E001C0CCE06091CE
:10025E00200170912101809122019091230120E0D3
:10026E003EEF4EE757E40E942805811111C08091A0
:10027E002701813031F058F0823029F0833029F097
:10028E0007C0CDE005C0C0E103C0C0E001C0C1E1C0
:10029E008BB1806F8BB92091270130E02C5F3F4FDF
:1002AE0081E090E002C0880F991F2A95E2F78095B1
:1002BE0090959BB189238BB980912701833029F4C6
:1002CE00C11103C08BB1806F8BB9EC2FF0E0E25FF0
:1002DE00FE4F808185B9609120017091210180913E
:1002EE0022019091230120E030E048EC52E40E947C
:1002FE00280588233CF480912701823019F485B1BA
:10030E00805885B9809127018F5F809327018430B3
:10031E0011F410922701FF91EF91CF91BF91AF9100
:10032E009F918F917F916F915F914F913F912F91FF
:10033E00FF90EF90DF90CF900F900FBE0F901F9019
:02034E00189500
:100350001F920F920FB60F9211242F933F934F933A
:100360005F936F937F938F939F93AF93BF93EF931D
:10037000FF93809178009091790090930101809390
:10038000000180912401909125010196909325010F
:10039000809324018F3F93400CF49EC0109225015E
:1003A00010922401609100017091010180E090E0C1
:1003B0000E94280420E030E04AEF53E40E94360512
:1003C00020E030EC4FE754E40E94320560930601D0
:1003D00070930701809308019093090160910601D1
:1003E00070910701809108019091090120E030E0AF
:1003F00048EC52E40E942D058823BCF06091060170
:100400007091070180910801909109010E94650493
:1004100070E080E090E00E942804609306017093F1
:100420000701809308019093090180910601909142
:100430000701A0910801B0910901809302019093F6
:100440000301A0930401B093050160910201709132
:100450000301809104019091050120E030E040E12A
:1004600051E40E94360520E030E040EA50E40E946A
:10047000320520E030E040E052E40E94070560933E
:100480000A0170930B0180930C0190930D018091F0
:100490002801882389F080910A0190910B01A09195
:1004A0000C01B0910D018093200190932101A09344
:1004B0002201B093230110C08091020190910301A9
:1004C000A0910401B0910501809320019093210136
:1004D000A0932201B0932301FF91EF91BF91AF91BF
:1004E0009F918F917F916F915F914F913F912F914C
:0A04F0000F900FBE0F901F9018959B
:1004FA0010C00E94140558F00E940D0540F029F41E
:10050A005F3F29F00C94220551110C941C050C94A0
:10051A003A050E94B80468F39923B1F3552391F37D
:10052A00951B550BBB27AA2762177307840738F058
:10053A009F5F5F4F220F331F441FAA1FA9F335D0B5
:10054A000E2E3AF0E0E832D091505040E695001C69
:10055A00CAF72BD0FE2F29D0660F771F881FBB1F23
:10056A00261737074807AB07B0E809F0BB0B802D01
:10057A00BF01FF2793585F4F3AF09E3F510578F02D
:10058A000C9422050C941C055F3FE4F3983ED4F3C7
:10059A00869577956795B795F7959F5FC9F7880F01
:1005AA00911D9695879597F90895E1E0660F771F53
:1005BA00881FBB1F621773078407BA0720F0621BE4
:0E05CA00730B840BBA0BEE1F88F7E0950895B3
:1005D8008FEF8093660084B980EF8AB984B5826012
:1005E80084BD85B5836085BD84E687BDEEE6F0E011
:1005F800808182608083789410927C00EAE7F0E042
:100608008081886A808380818460808310927B00E7
:100618008AB1837F8AB98BB18C608BB98DB38360C3
:100628008DBB8AE08093690065E033C0611118C012
:1006380080E09EEFAEE7B7E480932001909321011C
:10064800A0932201B093230181E0809326012FED2E
:1006580083E994E0215080409040E1F700C0000019
:10066800CFEFC60F70E080E090E00E94280460930E
:1006780020017093210180932201909323012FE39D
:100688008DE093E0215080409040E1F700C00000E9
:100698006C2F80912601882349F2EAE7F0E08081F7
:0606A80080648083FFCF97
:1006AE000FC00E940D0538F00E94140520F095230E
:1006BE0011F00C9422050C943A0511240C941C058F
:1006CE000E94B80470F3959FC1F3950F50E0551F2B
:1006DE00629FF001729FBB27F00DB11D639FAA2789
:1006EE00F00DB11DAA1F649F6627B00DA11D661FD8
:1006FE00829F2227B00DA11D621F739FB00DA11DF9
:10070E00621F839FA00D611D221F749F3327A00DB2
:10071E00611D231F849F600D211D822F762F6A2F4E
:10072E0011249F5750409AF0F1F088234AF0EE0FB3
:10073E00FF1FBB1F661F771F881F91505040A9F7E0
:10074E009E3F510580F00C9422050C941C055F3FD2
:10075E00E4F3983ED4F3869577956795B795F7951C
:10076E00E7959F5FC1F7FE2B880F911D9695879594
:04077E0097F908954A
:1007820011C00E940D0538F00E94140520F039F4C2
:100792009F3F19F426F40C943A050EF4E095E7FB1A
:1007A2000C942205E92F0E94B80458F3BA17620785
:1007B20073078407950720F079F4A6F50C941B05BE
:1007C2000EF4E0950B2EBA2FA02D0B01B90190016A
:1007D2000C01CA01A0011124FF27591B99F0593FAE
:1007E20050F4503E68F11A16F040A22F232F342FF6
:1007F2004427585FF3CF469537952795A795F04044
:100802005395C9F77EF41F16BA0B620B730B840B58
:10081200BAF09150A1F0FF0FBB1F661F771F881F10
:10082200C2F70EC0BA0F621F731F841F48F4879568
:1008320077956795B795F7959E3F08F0B0CF93955A
:0E084200880F08F09927EE0F97958795089577
:10085000E89409C097FB3EF490958095709561955A
:100860007F4F8F4F9F4F9923A9F0F92F96E9BB2710
:100870009395F695879577956795B795F111F8CF8C
:10088000FAF4BB0F11F460FF1BC06F5F7F4F8F4FF7
:100890009F4F16C0882311F096E911C0772321F0ED
:1008A0009EE8872F762F05C0662371F096E8862F85
:1008B00070E060E02AF09A95660F771F881FDAF7DC
:0A08C000880F9695879597F9089523
:1008CA000E94C00488F09F5798F0B92F9927B75112
:1008DA00B0F0E1F0660F771F881F991F1AF0BA95DA
:1008EA00C9F714C0B13091F00E941B05B1E0089518
:1008FA000C941B05672F782F8827B85F39F0B93F0A
:10090A00CCF3869577956795B395D9F73EF490958C
:0E091A008095709561957F4F8F4F9F4F089588
:10092800990F0008550FAA0BE0E8FEEF16161706F8
:10093800E807F907C0F012161306E407F50798F060
:10094800621B730B840B950B39F40A2661F0232B79
:10095800242B252B21F408950A2609F4A140A695F5
:080968008FEF811D811D089530
:1009700057FD9058440F551F59F05F3F71F0479550
:10098000880F97FB991F61F09F3F79F08795089535
:10099000121613061406551FF2CF4695F1DF08C054
:1009A000161617061806991FF1CF86957105610571
:0409B000089408950A
:1009B400092E0394000C11F4882352F0BB0F40F469
:1009C400BF2B11F460FF04C06F5F7F4F8F4F9F4FA9
:0209D400089584
:1009D6001F920F920FB60F9211248F9381E080938E
:0E09E60028018F910F900FBE0F901F90189553
:1009F4001F920F920FB60F921124109228010F909C
:080A04000FBE0F901F90189522
:0E0A0C005058BB27AA270E94C1030C94DA049D
:0E0A1A0000240A9416161706180609060895F9
:0E0A280000240A9412161306140605060895FB
:0E0A3600E894BB2766277727CB0197F9089530
:0C0A440097F99F6780E870E060E008957B
:0A0A50000E94940408F481E0089568
:0A0A5A000E94940408F48FEF089541
:080A64000E947D020C94DA04EB
:080A6C000E9457030C94DA0408
:060A74009FEF80EC0895E5
:040A7A000C940000D8
:100A7E003F065B4F666D7D077F6F777C395E7971C0
:020A8E00506EA8
:00000001FF
